{
  "_format": "hh-sol-artifact-1",
  "contractName": "AnchorCertificates",
  "sourceName": "contracts/AnchorCertificates.sol",
  "abi": [
    {
      "inputs": [
        {
          "internalType": "string",
          "name": "name_",
          "type": "string"
        },
        {
          "internalType": "string",
          "name": "symbol_",
          "type": "string"
        }
      ],
      "stateMutability": "nonpayable",
      "type": "constructor"
    },
    {
      "anonymous": false,
      "inputs": [
        {
          "indexed": true,
          "internalType": "address",
          "name": "owner",
          "type": "address"
        },
        {
          "indexed": true,
          "internalType": "address",
          "name": "approved",
          "type": "address"
        },
        {
          "indexed": true,
          "internalType": "uint256",
          "name": "tokenId",
          "type": "uint256"
        }
      ],
      "name": "Approval",
      "type": "event"
    },
    {
      "anonymous": false,
      "inputs": [
        {
          "indexed": true,
          "internalType": "address",
          "name": "owner",
          "type": "address"
        },
        {
          "indexed": true,
          "internalType": "address",
          "name": "operator",
          "type": "address"
        },
        {
          "indexed": false,
          "internalType": "bool",
          "name": "approved",
          "type": "bool"
        }
      ],
      "name": "ApprovalForAll",
      "type": "event"
    },
    {
      "anonymous": false,
      "inputs": [
        {
          "indexed": true,
          "internalType": "address",
          "name": "from",
          "type": "address"
        },
        {
          "indexed": true,
          "internalType": "address",
          "name": "to",
          "type": "address"
        },
        {
          "indexed": true,
          "internalType": "uint256",
          "name": "tokenId",
          "type": "uint256"
        }
      ],
      "name": "Transfer",
      "type": "event"
    },
    {
      "inputs": [
        {
          "internalType": "address",
          "name": "to",
          "type": "address"
        },
        {
          "internalType": "uint256",
          "name": "tokenId",
          "type": "uint256"
        }
      ],
      "name": "approve",
      "outputs": [],
      "stateMutability": "nonpayable",
      "type": "function"
    },
    {
      "inputs": [
        {
          "internalType": "address",
          "name": "owner",
          "type": "address"
        }
      ],
      "name": "balanceOf",
      "outputs": [
        {
          "internalType": "uint256",
          "name": "",
          "type": "uint256"
        }
      ],
      "stateMutability": "view",
      "type": "function"
    },
    {
      "inputs": [
        {
          "internalType": "uint256",
          "name": "",
          "type": "uint256"
        }
      ],
      "name": "certificates",
      "outputs": [
        {
          "internalType": "uint256",
          "name": "nr",
          "type": "uint256"
        },
        {
          "internalType": "address",
          "name": "sponsored",
          "type": "address"
        }
      ],
      "stateMutability": "view",
      "type": "function"
    },
    {
      "inputs": [],
      "name": "defaultCertificatesSupply",
      "outputs": [
        {
          "internalType": "uint256",
          "name": "",
          "type": "uint256"
        }
      ],
      "stateMutability": "view",
      "type": "function"
    },
    {
      "inputs": [],
      "name": "deluxeCertificatesSupply",
      "outputs": [
        {
          "internalType": "uint256",
          "name": "",
          "type": "uint256"
        }
      ],
      "stateMutability": "view",
      "type": "function"
    },
    {
      "inputs": [
        {
          "internalType": "uint256",
          "name": "tokenId",
          "type": "uint256"
        }
      ],
      "name": "generateBase64Image",
      "outputs": [
        {
          "internalType": "string",
          "name": "",
          "type": "string"
        }
      ],
      "stateMutability": "view",
      "type": "function"
    },
    {
      "inputs": [
        {
          "internalType": "uint256",
          "name": "tokenId",
          "type": "uint256"
        }
      ],
      "name": "generateImage",
      "outputs": [
        {
          "internalType": "string",
          "name": "svg",
          "type": "string"
        }
      ],
      "stateMutability": "view",
      "type": "function"
    },
    {
      "inputs": [
        {
          "internalType": "uint256",
          "name": "tokenId",
          "type": "uint256"
        },
        {
          "internalType": "uint256",
          "name": "pIndex",
          "type": "uint256"
        }
      ],
      "name": "generatePaletteSection",
      "outputs": [
        {
          "internalType": "string",
          "name": "paletteSection",
          "type": "string"
        }
      ],
      "stateMutability": "view",
      "type": "function"
    },
    {
      "inputs": [
        {
          "internalType": "bytes",
          "name": "hash",
          "type": "bytes"
        },
        {
          "internalType": "uint256",
          "name": "i",
          "type": "uint256"
        }
      ],
      "name": "generateSkyscraper",
      "outputs": [
        {
          "components": [
            {
              "internalType": "string",
              "name": "h",
              "type": "string"
            },
            {
              "internalType": "string",
              "name": "a1",
              "type": "string"
            },
            {
              "internalType": "string",
              "name": "a2",
              "type": "string"
            },
            {
              "internalType": "string",
              "name": "a3",
              "type": "string"
            }
          ],
          "internalType": "struct AnchorCertificates.Skyscraper",
          "name": "skyscraper",
          "type": "tuple"
        }
      ],
      "stateMutability": "pure",
      "type": "function"
    },
    {
      "inputs": [
        {
          "components": [
            {
              "internalType": "string",
              "name": "h",
              "type": "string"
            },
            {
              "internalType": "string",
              "name": "a1",
              "type": "string"
            },
            {
              "internalType": "string",
              "name": "a2",
              "type": "string"
            },
            {
              "internalType": "string",
              "name": "a3",
              "type": "string"
            }
          ],
          "internalType": "struct AnchorCertificates.Skyscraper",
          "name": "skyscraper",
          "type": "tuple"
        },
        {
          "internalType": "string",
          "name": "x",
          "type": "string"
        },
        {
          "internalType": "uint256",
          "name": "pIndex",
          "type": "uint256"
        },
        {
          "internalType": "uint256",
          "name": "p",
          "type": "uint256"
        }
      ],
      "name": "generateSkyscraperSVG",
      "outputs": [
        {
          "internalType": "string",
          "name": "svg",
          "type": "string"
        }
      ],
      "stateMutability": "view",
      "type": "function"
    },
    {
      "inputs": [
        {
          "internalType": "bytes",
          "name": "hash",
          "type": "bytes"
        },
        {
          "internalType": "uint256",
          "name": "pIndex",
          "type": "uint256"
        }
      ],
      "name": "generateSkyscrapers",
      "outputs": [
        {
          "internalType": "string",
          "name": "skyscraper",
          "type": "string"
        }
      ],
      "stateMutability": "view",
      "type": "function"
    },
    {
      "inputs": [
        {
          "internalType": "uint256",
          "name": "tokenId",
          "type": "uint256"
        }
      ],
      "name": "getApproved",
      "outputs": [
        {
          "internalType": "address",
          "name": "",
          "type": "address"
        }
      ],
      "stateMutability": "view",
      "type": "function"
    },
    {
      "inputs": [
        {
          "internalType": "address",
          "name": "owner",
          "type": "address"
        },
        {
          "internalType": "address",
          "name": "operator",
          "type": "address"
        }
      ],
      "name": "isApprovedForAll",
      "outputs": [
        {
          "internalType": "bool",
          "name": "",
          "type": "bool"
        }
      ],
      "stateMutability": "view",
      "type": "function"
    },
    {
      "inputs": [],
      "name": "mintCertificate",
      "outputs": [
        {
          "internalType": "uint256",
          "name": "tokenId",
          "type": "uint256"
        }
      ],
      "stateMutability": "payable",
      "type": "function"
    },
    {
      "inputs": [],
      "name": "name",
      "outputs": [
        {
          "internalType": "string",
          "name": "",
          "type": "string"
        }
      ],
      "stateMutability": "view",
      "type": "function"
    },
    {
      "inputs": [],
      "name": "owner",
      "outputs": [
        {
          "internalType": "address",
          "name": "",
          "type": "address"
        }
      ],
      "stateMutability": "view",
      "type": "function"
    },
    {
      "inputs": [
        {
          "internalType": "uint256",
          "name": "tokenId",
          "type": "uint256"
        }
      ],
      "name": "ownerOf",
      "outputs": [
        {
          "internalType": "address",
          "name": "",
          "type": "address"
        }
      ],
      "stateMutability": "view",
      "type": "function"
    },
    {
      "inputs": [
        {
          "internalType": "address",
          "name": "from",
          "type": "address"
        },
        {
          "internalType": "address",
          "name": "to",
          "type": "address"
        },
        {
          "internalType": "uint256",
          "name": "tokenId",
          "type": "uint256"
        }
      ],
      "name": "safeTransferFrom",
      "outputs": [],
      "stateMutability": "nonpayable",
      "type": "function"
    },
    {
      "inputs": [
        {
          "internalType": "address",
          "name": "from",
          "type": "address"
        },
        {
          "internalType": "address",
          "name": "to",
          "type": "address"
        },
        {
          "internalType": "uint256",
          "name": "tokenId",
          "type": "uint256"
        },
        {
          "internalType": "bytes",
          "name": "_data",
          "type": "bytes"
        }
      ],
      "name": "safeTransferFrom",
      "outputs": [],
      "stateMutability": "nonpayable",
      "type": "function"
    },
    {
      "inputs": [
        {
          "internalType": "address",
          "name": "operator",
          "type": "address"
        },
        {
          "internalType": "bool",
          "name": "approved",
          "type": "bool"
        }
      ],
      "name": "setApprovalForAll",
      "outputs": [],
      "stateMutability": "nonpayable",
      "type": "function"
    },
    {
      "inputs": [
        {
          "internalType": "string",
          "name": "str",
          "type": "string"
        },
        {
          "internalType": "uint256",
          "name": "startIndex",
          "type": "uint256"
        },
        {
          "internalType": "uint256",
          "name": "endIndex",
          "type": "uint256"
        }
      ],
      "name": "substring",
      "outputs": [
        {
          "internalType": "string",
          "name": "",
          "type": "string"
        }
      ],
      "stateMutability": "pure",
      "type": "function"
    },
    {
      "inputs": [
        {
          "internalType": "bytes4",
          "name": "interfaceId",
          "type": "bytes4"
        }
      ],
      "name": "supportsInterface",
      "outputs": [
        {
          "internalType": "bool",
          "name": "",
          "type": "bool"
        }
      ],
      "stateMutability": "view",
      "type": "function"
    },
    {
      "inputs": [],
      "name": "symbol",
      "outputs": [
        {
          "internalType": "string",
          "name": "",
          "type": "string"
        }
      ],
      "stateMutability": "view",
      "type": "function"
    },
    {
      "inputs": [
        {
          "internalType": "uint256",
          "name": "tokenId",
          "type": "uint256"
        }
      ],
      "name": "tokenURI",
      "outputs": [
        {
          "internalType": "string",
          "name": "",
          "type": "string"
        }
      ],
      "stateMutability": "view",
      "type": "function"
    },
    {
      "inputs": [
        {
          "internalType": "address",
          "name": "from",
          "type": "address"
        },
        {
          "internalType": "address",
          "name": "to",
          "type": "address"
        },
        {
          "internalType": "uint256",
          "name": "tokenId",
          "type": "uint256"
        }
      ],
      "name": "transferFrom",
      "outputs": [],
      "stateMutability": "nonpayable",
      "type": "function"
    }
  ],
  "bytecode": "0x6080604052730cacc6104d8cd9d7b2850b4f35c65c1ecdeece03600660006101000a81548173ffffffffffffffffffffffffffffffffffffffff021916908373ffffffffffffffffffffffffffffffffffffffff1602179055506000600755600060085560405180610200016040528060405180608001604052806040518060400160405280600781526020017f236563613366350000000000000000000000000000000000000000000000000081525081526020016040518060400160405280600781526020017f236664626166390000000000000000000000000000000000000000000000000081525081526020016040518060400160405280600781526020017f236230656665620000000000000000000000000000000000000000000000000081525081526020016040518060400160405280600781526020017f2365646666613900000000000000000000000000000000000000000000000000815250815250815260200160405180608001604052806040518060400160405280600781526020017f233735636662380000000000000000000000000000000000000000000000000081525081526020016040518060400160405280600781526020017f236262646663380000000000000000000000000000000000000000000000000081525081526020016040518060400160405280600781526020017f236630653564380000000000000000000000000000000000000000000000000081525081526020016040518060400160405280600781526020017f2366666334373800000000000000000000000000000000000000000000000000815250815250815260200160405180608001604052806040518060400160405280600781526020017f236666616237330000000000000000000000000000000000000000000000000081525081526020016040518060400160405280600781526020017f236666643338340000000000000000000000000000000000000000000000000081525081526020016040518060400160405280600781526020017f236666663962300000000000000000000000000000000000000000000000000081525081526020016040518060400160405280600781526020017f2366666165633000000000000000000000000000000000000000000000000000815250815250815260200160405180608001604052806040518060400160405280600781526020017f233934623461340000000000000000000000000000000000000000000000000081525081526020016040518060400160405280600781526020017f236432663565330000000000000000000000000000000000000000000000000081525081526020016040518060400160405280600781526020017f236535633562350000000000000000000000000000000000000000000000000081525081526020016040518060400160405280600781526020017f2366346439633600000000000000000000000000000000000000000000000000815250815250815260200160405180608001604052806040518060400160405280600781526020017f236634663966390000000000000000000000000000000000000000000000000081525081526020016040518060400160405280600781526020017f236363663266340000000000000000000000000000000000000000000000000081525081526020016040518060400160405280600781526020017f236134656266330000000000000000000000000000000000000000000000000081525081526020016040518060400160405280600781526020017f2361616161616100000000000000000000000000000000000000000000000000815250815250815260200160405180608001604052806040518060400160405280600781526020017f236361663765330000000000000000000000000000000000000000000000000081525081526020016040518060400160405280600781526020017f236564666665630000000000000000000000000000000000000000000000000081525081526020016040518060400160405280600781526020017f236636646665620000000000000000000000000000000000000000000000000081525081526020016040518060400160405280600781526020017f2365346261643400000000000000000000000000000000000000000000000000815250815250815260200160405180608001604052806040518060400160405280600781526020017f236634663966390000000000000000000000000000000000000000000000000081525081526020016040518060400160405280600781526020017f236631643164300000000000000000000000000000000000000000000000000081525081526020016040518060400160405280600781526020017f236662616363630000000000000000000000000000000000000000000000000081525081526020016040518060400160405280600781526020017f2366383735616100000000000000000000000000000000000000000000000000815250815250815260200160405180608001604052806040518060400160405280600781526020017f236664666662630000000000000000000000000000000000000000000000000081525081526020016040518060400160405280600781526020017f236666656562620000000000000000000000000000000000000000000000000081525081526020016040518060400160405280600781526020017f236666646362380000000000000000000000000000000000000000000000000081525081526020016040518060400160405280600781526020017f2366666331623600000000000000000000000000000000000000000000000000815250815250815260200160405180608001604052806040518060400160405280600781526020017f236630653464370000000000000000000000000000000000000000000000000081525081526020016040518060400160405280600781526020017f236635633063300000000000000000000000000000000000000000000000000081525081526020016040518060400160405280600781526020017f236666373137310000000000000000000000000000000000000000000000000081525081526020016040518060400160405280600781526020017f2339666438646600000000000000000000000000000000000000000000000000815250815250815260200160405180608001604052806040518060400160405280600781526020017f236534666266660000000000000000000000000000000000000000000000000081525081526020016040518060400160405280600781526020017f236238623566660000000000000000000000000000000000000000000000000081525081526020016040518060400160405280600781526020017f233738363865360000000000000000000000000000000000000000000000000081525081526020016040518060400160405280600781526020017f2365646565663700000000000000000000000000000000000000000000000000815250815250815260200160405180608001604052806040518060400160405280600781526020017f236666636239310000000000000000000000000000000000000000000000000081525081526020016040518060400160405280600781526020017f236666656661310000000000000000000000000000000000000000000000000081525081526020016040518060400160405280600781526020017f233934656263640000000000000000000000000000000000000000000000000081525081526020016040518060400160405280600781526020017f2336646463636600000000000000000000000000000000000000000000000000815250815250815260200160405180608001604052806040518060400160405280600781526020017f236265646366610000000000000000000000000000000000000000000000000081525081526020016040518060400160405280600781526020017f233938616366380000000000000000000000000000000000000000000000000081525081526020016040518060400160405280600781526020017f236230383866390000000000000000000000000000000000000000000000000081525081526020016040518060400160405280600781526020017f2364613966663900000000000000000000000000000000000000000000000000815250815250815260200160405180608001604052806040518060400160405280600781526020017f236263653665620000000000000000000000000000000000000000000000000081525081526020016040518060400160405280600781526020017f236664636664660000000000000000000000000000000000000000000000000081525081526020016040518060400160405280600781526020017f236662626564660000000000000000000000000000000000000000000000000081525081526020016040518060400160405280600781526020017f2366636133636300000000000000000000000000000000000000000000000000815250815250815260200160405180608001604052806040518060400160405280600781526020017f236666373561300000000000000000000000000000000000000000000000000081525081526020016040518060400160405280600781526020017f236663653338610000000000000000000000000000000000000000000000000081525081526020016040518060400160405280600781526020017f236561666664300000000000000000000000000000000000000000000000000081525081526020016040518060400160405280600781526020017f2339356531643300000000000000000000000000000000000000000000000000815250815250815260200160405180608001604052806040518060400160405280600781526020017f236662653063340000000000000000000000000000000000000000000000000081525081526020016040518060400160405280600781526020017f233861623664360000000000000000000000000000000000000000000000000081525081526020016040518060400160405280600781526020017f233239373862350000000000000000000000000000000000000000000000000081525081526020016040518060400160405280600781526020017f2330303631613800000000000000000000000000000000000000000000000000815250815250815260200160405180608001604052806040518060400160405280600781526020017f236464646464640000000000000000000000000000000000000000000000000081525081526020016040518060400160405280600781526020017f236639663366330000000000000000000000000000000000000000000000000081525081526020016040518060400160405280600781526020017f236637643964390000000000000000000000000000000000000000000000000081525081526020016040518060400160405280600781526020017f2366323532383700000000000000000000000000000000000000000000000000815250815250815250600a9060106200101f92919062001f6e565b506040518061080001604052806040518060400160405280600581526020017f4255494c4400000000000000000000000000000000000000000000000000000081525081526020016040518060400160405280600581526020017f545241494e00000000000000000000000000000000000000000000000000000081525081526020016040518060400160405280600381526020017f534545000000000000000000000000000000000000000000000000000000000081525081526020016040518060400160405280600581526020017f445245414d00000000000000000000000000000000000000000000000000000081525081526020016040518060400160405280600481526020017f4c4956450000000000000000000000000000000000000000000000000000000081525081526020016040518060400160405280600581526020017f44414e434500000000000000000000000000000000000000000000000000000081525081526020016040518060400160405280600481526020017f484f50450000000000000000000000000000000000000000000000000000000081525081526020016040518060400160405280600981526020017f415243484954454354000000000000000000000000000000000000000000000081525081526020016040518060400160405280600781526020017f4558504c4f52450000000000000000000000000000000000000000000000000081525081526020016040518060400160405280600381526020017f454154000000000000000000000000000000000000000000000000000000000081525081526020016040518060400160405280600581526020017f544153544500000000000000000000000000000000000000000000000000000081525081526020016040518060400160405280600581526020017f534d454c4c00000000000000000000000000000000000000000000000000000081525081526020016040518060400160405280600381526020017f52554e000000000000000000000000000000000000000000000000000000000081525081526020016040518060400160405280600281526020017f424500000000000000000000000000000000000000000000000000000000000081525081526020016040518060400160405280600781526020017f4d45414e4445520000000000000000000000000000000000000000000000000081525081526020016040518060400160405280600481526020017f57414c4b0000000000000000000000000000000000000000000000000000000081525081526020016040518060400160405280600581526020017f4c4541564500000000000000000000000000000000000000000000000000000081525081526020016040518060400160405280600481526020017f4c4f56450000000000000000000000000000000000000000000000000000000081525081526020016040518060400160405280600981526020017f52454d494e49534345000000000000000000000000000000000000000000000081525081526020016040518060400160405280600481526020017f474956450000000000000000000000000000000000000000000000000000000081525081526020016040518060400160405280600681526020017f415343454e44000000000000000000000000000000000000000000000000000081525081526020016040518060400160405280600481526020017f4d4545540000000000000000000000000000000000000000000000000000000081525081526020016040518060400160405280600581526020017f4c4541524e00000000000000000000000000000000000000000000000000000081525081526020016040518060400160405280600981526020017f454e434f4d50415353000000000000000000000000000000000000000000000081525081526020016040518060400160405280600881526020017f4d4544495441544500000000000000000000000000000000000000000000000081525081526020016040518060400160405280600481526020017f46494e440000000000000000000000000000000000000000000000000000000081525081526020016040518060400160405280600481526020017f5345454b0000000000000000000000000000000000000000000000000000000081525081526020016040518060400160405280600581526020017f4c4155474800000000000000000000000000000000000000000000000000000081525081526020016040518060400160405280600681526020017f4c495354454e000000000000000000000000000000000000000000000000000081525081526020016040518060400160405280600481526020017f4645454c0000000000000000000000000000000000000000000000000000000081525081526020016040518060400160405280600581526020017f544f55434800000000000000000000000000000000000000000000000000000081525081526020016040518060400160405280600781526020017f464f52474956450000000000000000000000000000000000000000000000000081525081526020016040518060400160405280600581526020017f41544f4e4500000000000000000000000000000000000000000000000000000081525081526020016040518060400160405280600681526020017f414343455054000000000000000000000000000000000000000000000000000081525081526020016040518060400160405280600481526020017f504c41590000000000000000000000000000000000000000000000000000000081525081526020016040518060400160405280600481526020017f53494e470000000000000000000000000000000000000000000000000000000081525081526020016040518060400160405280600581526020017f445249564500000000000000000000000000000000000000000000000000000081525081526020016040518060400160405280600581526020017f434c494d4200000000000000000000000000000000000000000000000000000081525081526020016040518060400160405280600581526020017f5041494e5400000000000000000000000000000000000000000000000000000081525081526020016040518060400160405280600481526020017f434f44450000000000000000000000000000000000000000000000000000000081525081526020016040518060400160405280600681526020017f504f4e444552000000000000000000000000000000000000000000000000000081525081526020016040518060400160405280600581526020017f534c45455000000000000000000000000000000000000000000000000000000081525081526020016040518060400160405280600381526020017f464c59000000000000000000000000000000000000000000000000000000000081525081526020016040518060400160405280600681526020017f435245415445000000000000000000000000000000000000000000000000000081525081526020016040518060400160405280600681526020017f575249544552000000000000000000000000000000000000000000000000000081525081526020016040518060400160405280600681526020017f444952454354000000000000000000000000000000000000000000000000000081525081526020016040518060400160405280600681526020017f455343415045000000000000000000000000000000000000000000000000000081525081526020016040518060400160405280600481526020017f46414c4c0000000000000000000000000000000000000000000000000000000081525081526020016040518060400160405280600881526020017f464c4f555249534800000000000000000000000000000000000000000000000081525081526020016040518060400160405280600381526020017f4a414d000000000000000000000000000000000000000000000000000000000081525081526020016040518060400160405280600981526020017f494d50524f56495345000000000000000000000000000000000000000000000081525081526020016040518060400160405280600481526020017f4a554d500000000000000000000000000000000000000000000000000000000081525081526020016040518060400160405280600581526020017f545245415400000000000000000000000000000000000000000000000000000081525081526020016040518060400160405280600481526020017f474946540000000000000000000000000000000000000000000000000000000081525081526020016040518060400160405280600481526020017f455849540000000000000000000000000000000000000000000000000000000081525081526020016040518060400160405280600381526020017f4d4958000000000000000000000000000000000000000000000000000000000081525081526020016040518060400160405280600481526020017f5341494c0000000000000000000000000000000000000000000000000000000081525081526020016040518060400160405280600481526020017f4d414b450000000000000000000000000000000000000000000000000000000081525081526020016040518060400160405280600581526020017f534f4c564500000000000000000000000000000000000000000000000000000081525081526020016040518060400160405280600681526020017f534541524348000000000000000000000000000000000000000000000000000081525081526020016040518060400160405280600581526020017f5448494e4b00000000000000000000000000000000000000000000000000000081525081526020016040518060400160405280600881526020017f524553454152434800000000000000000000000000000000000000000000000081525081526020016040518060400160405280600781526020017f414456414e43450000000000000000000000000000000000000000000000000081525081526020016040518060400160405280600681526020017f524541534f4e0000000000000000000000000000000000000000000000000000815250815250600b90604062001efc92919062001fd3565b5034801562001f0a57600080fd5b506040516200812138038062008121833981810160405281019062001f3091906200228c565b8181816000908051906020019062001f4a9291906200202d565b50806001908051906020019062001f639291906200202d565b50505050506200246f565b82805482825590600052602060002090600402810192821562001fc0579160200282015b8281111562001fbf5782518290600462001fae929190620020be565b509160200191906004019062001f92565b5b50905062001fcf919062002118565b5090565b82604081019282156200201a579160200282015b8281111562002019578251829080519060200190620020089291906200202d565b509160200191906001019062001fe7565b5b50905062002029919062002140565b5090565b8280546200203b9062002394565b90600052602060002090601f0160209004810192826200205f5760008555620020ab565b82601f106200207a57805160ff1916838001178555620020ab565b82800160010185558215620020ab579182015b82811115620020aa5782518255916020019190600101906200208d565b5b509050620020ba919062002168565b5090565b826004810192821562002105579160200282015b8281111562002104578251829080519060200190620020f39291906200202d565b5091602001919060010190620020d2565b5b50905062002114919062002140565b5090565b5b808211156200213c576000818162002132919062002187565b5060040162002119565b5090565b5b808211156200216457600081816200215a9190620021d4565b5060010162002141565b5090565b5b808211156200218357600081600090555060010162002169565b5090565b5060008181620021989190620021d4565b5060010160008181620021ac9190620021d4565b5060010160008181620021c09190620021d4565b506001016000620021d29190620021d4565b565b508054620021e29062002394565b6000825580601f10620021f6575062002217565b601f01602090049060005260206000209081019062002216919062002168565b5b50565b6000620022316200222b8462002328565b620022ff565b9050828152602081018484840111156200224a57600080fd5b620022578482856200235e565b509392505050565b600082601f8301126200227157600080fd5b8151620022838482602086016200221a565b91505092915050565b60008060408385031215620022a057600080fd5b600083015167ffffffffffffffff811115620022bb57600080fd5b620022c9858286016200225f565b925050602083015167ffffffffffffffff811115620022e757600080fd5b620022f5858286016200225f565b9150509250929050565b60006200230b6200231e565b9050620023198282620023ca565b919050565b6000604051905090565b600067ffffffffffffffff8211156200234657620023456200242f565b5b62002351826200245e565b9050602081019050919050565b60005b838110156200237e57808201518184015260208101905062002361565b838111156200238e576000848401525b50505050565b60006002820490506001821680620023ad57607f821691505b60208210811415620023c457620023c362002400565b5b50919050565b620023d5826200245e565b810181811067ffffffffffffffff82111715620023f757620023f66200242f565b5b80604052505050565b7f4e487b7100000000000000000000000000000000000000000000000000000000600052602260045260246000fd5b7f4e487b7100000000000000000000000000000000000000000000000000000000600052604160045260246000fd5b6000601f19601f8301169050919050565b615ca2806200247f6000396000f3fe6080604052600436106101665760003560e01c8063663b3e22116100d1578063acd0bddb1161008a578063d8eb58ad11610064578063d8eb58ad146105af578063dd014437146105ec578063e985e9c51461060a578063f0e455ac1461064757610166565b8063acd0bddb1461051e578063b88d4fde14610549578063c87b56dd1461057257610166565b8063663b3e22146103e757806370a08231146104255780638da5cb5b1461046257806395d89b411461048d578063a22cb465146104b8578063a48b3b8f146104e157610166565b806323b872dd1161012357806323b872dd146102b35780633a401f82146102dc57806342842e0e146103195780634b44d8121461034257806357cecd3a1461037f5780636352211e146103aa57610166565b806301ffc9a71461016b57806306fdde03146101a8578063081812fc146101d3578063095ea7b3146102105780630b9785d3146102395780631dcd9b5514610276575b600080fd5b34801561017757600080fd5b50610192600480360381019061018d9190612f3c565b610684565b60405161019f9190614173565b60405180910390f35b3480156101b457600080fd5b506101bd610766565b6040516101ca919061418e565b60405180910390f35b3480156101df57600080fd5b506101fa60048036038101906101f591906130dc565b6107f8565b604051610207919061410c565b60405180910390f35b34801561021c57600080fd5b5061023760048036038101906102329190612f00565b61087d565b005b34801561024557600080fd5b50610260600480360381019061025b9190613049565b610987565b60405161026d919061418e565b60405180910390f35b34801561028257600080fd5b5061029d60048036038101906102989190612fe2565b610a4f565b6040516102aa919061418e565b60405180910390f35b3480156102bf57600080fd5b506102da60048036038101906102d59190612dfa565b610bbd565b005b3480156102e857600080fd5b5061030360048036038101906102fe9190613105565b610c16565b604051610310919061418e565b60405180910390f35b34801561032557600080fd5b50610340600480360381019061033b9190612dfa565b610fe9565b005b34801561034e57600080fd5b50610369600480360381019061036491906130dc565b611009565b604051610376919061418e565b60405180910390f35b34801561038b57600080fd5b5061039461116c565b6040516103a191906143d2565b60405180910390f35b3480156103b657600080fd5b506103d160048036038101906103cc91906130dc565b611172565b6040516103de919061410c565b60405180910390f35b3480156103f357600080fd5b5061040e600480360381019061040991906130dc565b611224565b60405161041c9291906143ed565b60405180910390f35b34801561043157600080fd5b5061044c60048036038101906104479190612d95565b611268565b60405161045991906143d2565b60405180910390f35b34801561046e57600080fd5b50610477611320565b604051610484919061410c565b60405180910390f35b34801561049957600080fd5b506104a2611346565b6040516104af919061418e565b60405180910390f35b3480156104c457600080fd5b506104df60048036038101906104da9190612ec4565b6113d8565b005b3480156104ed57600080fd5b50610508600480360381019061050391906130dc565b611544565b604051610515919061418e565b60405180910390f35b34801561052a57600080fd5b50610533611564565b60405161054091906143d2565b60405180910390f35b34801561055557600080fd5b50610570600480360381019061056b9190612e49565b61156a565b005b34801561057e57600080fd5b50610599600480360381019061059491906130dc565b6115c5565b6040516105a6919061418e565b60405180910390f35b3480156105bb57600080fd5b506105d660048036038101906105d19190612f8e565b61169d565b6040516105e391906143b0565b60405180910390f35b6105f461177f565b60405161060191906143d2565b60405180910390f35b34801561061657600080fd5b50610631600480360381019061062c9190612dbe565b6118d0565b60405161063e9190614173565b60405180910390f35b34801561065357600080fd5b5061066e60048036038101906106699190612f8e565b611964565b60405161067b919061418e565b60405180910390f35b60007f80ac58cd000000000000000000000000000000000000000000000000000000007bffffffffffffffffffffffffffffffffffffffffffffffffffffffff1916827bffffffffffffffffffffffffffffffffffffffffffffffffffffffff1916148061074f57507f5b5e139f000000000000000000000000000000000000000000000000000000007bffffffffffffffffffffffffffffffffffffffffffffffffffffffff1916827bffffffffffffffffffffffffffffffffffffffffffffffffffffffff1916145b8061075f575061075e82611ae7565b5b9050919050565b6060600080546107759061477a565b80601f01602080910402602001604051908101604052809291908181526020018280546107a19061477a565b80156107ee5780601f106107c3576101008083540402835291602001916107ee565b820191906000526020600020905b8154815290600101906020018083116107d157829003601f168201915b5050505050905090565b600061080382611b51565b610842576040517f08c379a0000000000000000000000000000000000000000000000000000000008152600401610839906142f0565b60405180910390fd5b6004600083815260200190815260200160002060009054906101000a900473ffffffffffffffffffffffffffffffffffffffff169050919050565b600061088882611172565b90508073ffffffffffffffffffffffffffffffffffffffff168373ffffffffffffffffffffffffffffffffffffffff1614156108f9576040517f08c379a00000000000000000000000000000000000000000000000000000000081526004016108f090614330565b60405180910390fd5b8073ffffffffffffffffffffffffffffffffffffffff163373ffffffffffffffffffffffffffffffffffffffff161480610939575061093881336118d0565b5b610978576040517f08c379a000000000000000000000000000000000000000000000000000000000815260040161096f90614270565b60405180910390fd5b6109828383611bbd565b505050565b606083856000015185600a86815481106109ca577f4e487b7100000000000000000000000000000000000000000000000000000000600052603260045260246000fd5b90600052602060002090600402018560048110610a10577f4e487b7100000000000000000000000000000000000000000000000000000000600052603260045260246000fd5b01886020015189604001518a60600151604051602001610a369796959493929190614023565b6040516020818303038152906040529050949350505050565b6060600084905060008484610a64919061464f565b67ffffffffffffffff811115610aa3577f4e487b7100000000000000000000000000000000000000000000000000000000600052604160045260246000fd5b6040519080825280601f01601f191660200182016040528015610ad55781602001600182028036833780820191505090505b50905060008590505b84811015610bb057828181518110610b1f577f4e487b7100000000000000000000000000000000000000000000000000000000600052603260045260246000fd5b602001015160f81c60f81b828783610b37919061464f565b81518110610b6e577f4e487b7100000000000000000000000000000000000000000000000000000000600052603260045260246000fd5b60200101907effffffffffffffffffffffffffffffffffffffffffffffffffffffffffffff1916908160001a9053508080610ba8906147dd565b915050610ade565b5080925050509392505050565b610bc73382611c76565b610c06576040517f08c379a0000000000000000000000000000000000000000000000000000000008152600401610bfd90614370565b60405180910390fd5b610c11838383611d54565b505050565b6060600a8281548110610c52577f4e487b7100000000000000000000000000000000000000000000000000000000600052603260045260246000fd5b9060005260206000209060040201600060048110610c99577f4e487b7100000000000000000000000000000000000000000000000000000000600052603260045260246000fd5b01600a8381548110610cd4577f4e487b7100000000000000000000000000000000000000000000000000000000600052603260045260246000fd5b9060005260206000209060040201600360048110610d1b577f4e487b7100000000000000000000000000000000000000000000000000000000600052603260045260246000fd5b01600a8481548110610d56577f4e487b7100000000000000000000000000000000000000000000000000000000600052603260045260246000fd5b9060005260206000209060040201600160048110610d9d577f4e487b7100000000000000000000000000000000000000000000000000000000600052603260045260246000fd5b01600a8581548110610dd8577f4e487b7100000000000000000000000000000000000000000000000000000000600052603260045260246000fd5b9060005260206000209060040201600260048110610e1f577f4e487b7100000000000000000000000000000000000000000000000000000000600052603260045260246000fd5b01610e35610e2c88611fa5565b60006018610a4f565b600a8781548110610e6f577f4e487b7100000000000000000000000000000000000000000000000000000000600052603260045260246000fd5b9060005260206000209060040201600360048110610eb6577f4e487b7100000000000000000000000000000000000000000000000000000000600052603260045260246000fd5b01600a8881548110610ef1577f4e487b7100000000000000000000000000000000000000000000000000000000600052603260045260246000fd5b9060005260206000209060040201600360048110610f38577f4e487b7100000000000000000000000000000000000000000000000000000000600052603260045260246000fd5b01600a8981548110610f73577f4e487b7100000000000000000000000000000000000000000000000000000000600052603260045260246000fd5b9060005260206000209060040201600360048110610fba577f4e487b7100000000000000000000000000000000000000000000000000000000600052603260045260246000fd5b01604051602001610fd2989796959493929190613ec9565b604051602081830303815290604052905092915050565b6110048383836040518060200160405280600081525061156a565b505050565b606060008260001b6040516020016110219190613c23565b604051602081830303815290604052905060006010611041836000612152565b61104b91906145c4565b60ff1690506000600461105f846001612152565b61106991906145c4565b60ff169050600061107a8684610c16565b905060006110888585611964565b905081816110ab600960008b815260200190815260200160002060000154611fa5565b600b86604081106110e5577f4e487b7100000000000000000000000000000000000000000000000000000000600052603260045260246000fd5b0161113d600960008d815260200190815260200160002060010160009054906101000a900473ffffffffffffffffffffffffffffffffffffffff1673ffffffffffffffffffffffffffffffffffffffff166014612208565b604051602001611151959493929190613d45565b60405160208183030381529060405295505050505050919050565b60085481565b6000806002600084815260200190815260200160002060009054906101000a900473ffffffffffffffffffffffffffffffffffffffff169050600073ffffffffffffffffffffffffffffffffffffffff168173ffffffffffffffffffffffffffffffffffffffff16141561121b576040517f08c379a0000000000000000000000000000000000000000000000000000000008152600401611212906142b0565b60405180910390fd5b80915050919050565b60096020528060005260406000206000915090508060000154908060010160009054906101000a900473ffffffffffffffffffffffffffffffffffffffff16905082565b60008073ffffffffffffffffffffffffffffffffffffffff168273ffffffffffffffffffffffffffffffffffffffff1614156112d9576040517f08c379a00000000000000000000000000000000000000000000000000000000081526004016112d090614290565b60405180910390fd5b600360008373ffffffffffffffffffffffffffffffffffffffff1673ffffffffffffffffffffffffffffffffffffffff168152602001908152602001600020549050919050565b600660009054906101000a900473ffffffffffffffffffffffffffffffffffffffff1681565b6060600180546113559061477a565b80601f01602080910402602001604051908101604052809291908181526020018280546113819061477a565b80156113ce5780601f106113a3576101008083540402835291602001916113ce565b820191906000526020600020905b8154815290600101906020018083116113b157829003601f168201915b5050505050905090565b3373ffffffffffffffffffffffffffffffffffffffff168273ffffffffffffffffffffffffffffffffffffffff161415611447576040517f08c379a000000000000000000000000000000000000000000000000000000000815260040161143e90614230565b60405180910390fd5b80600560003373ffffffffffffffffffffffffffffffffffffffff1673ffffffffffffffffffffffffffffffffffffffff16815260200190815260200160002060008473ffffffffffffffffffffffffffffffffffffffff1673ffffffffffffffffffffffffffffffffffffffff16815260200190815260200160002060006101000a81548160ff0219169083151502179055508173ffffffffffffffffffffffffffffffffffffffff163373ffffffffffffffffffffffffffffffffffffffff167f17307eab39ab6107e8899845ad3d59bd9653f200f220920489ca2b5937696c31836040516115389190614173565b60405180910390a35050565b6060600061155183611009565b905061155c81612502565b915050919050565b60075481565b6115743383611c76565b6115b3576040517f08c379a00000000000000000000000000000000000000000000000000000000081526004016115aa90614370565b60405180910390fd5b6115bf848484846126ad565b50505050565b606060006040518060400160405280601481526020017f416e63686f722043657274696669636174652023000000000000000000000000815250905060006040518060400160405280601581526020017f546869732069732061206465736372697074696f6e00000000000000000000008152509050600061164685611544565b905061167483838360405160200161166093929190613e61565b604051602081830303815290604052612502565b6040516020016116849190614001565b6040516020818303038152906040529350505050919050565b6116a5612b30565b6116d260046116b48585612152565b6116be91906145c4565b605a6116ca919061455c565b60ff16611fa5565b816000018190525061170760106116f5856001866116f09190614506565b612152565b6116ff91906145c4565b60ff16611fa5565b816020018190525061173c601061172a856002866117259190614506565b612152565b61173491906145c4565b60ff16611fa5565b8160400181905250611771601061175f8560038661175a9190614506565b612152565b61176991906145c4565b60ff16611fa5565b816060018190525092915050565b600042336040516020016117949291906140e0565b6040516020818303038152906040528051906020012060001c90506117b93382612709565b6117c1612b58565b67016345785d8a00003411156118345760085481600001818152505033816020019073ffffffffffffffffffffffffffffffffffffffff16908173ffffffffffffffffffffffffffffffffffffffff16815250506001600860008282546118289190614506565b9250508190555061185b565b6007548160000181815250506001600760008282546118539190614506565b925050819055505b80600960008481526020019081526020016000206000820151816000015560208201518160010160006101000a81548173ffffffffffffffffffffffffffffffffffffffff021916908373ffffffffffffffffffffffffffffffffffffffff1602179055509050506118cc826128cb565b5090565b6000600560008473ffffffffffffffffffffffffffffffffffffffff1673ffffffffffffffffffffffffffffffffffffffff16815260200190815260200160002060008373ffffffffffffffffffffffffffffffffffffffff1673ffffffffffffffffffffffffffffffffffffffff16815260200190815260200160002060009054906101000a900460ff16905092915050565b6060600061197384600261169d565b9050600061198285600661169d565b9050600061199186600a61169d565b905060006119a087600e61169d565b905060006119af88601261169d565b905060006119f5856040518060400160405280600381526020017f32343500000000000000000000000000000000000000000000000000000000008152508a6002610987565b90506000611a3b856040518060400160405280600381526020017f32353500000000000000000000000000000000000000000000000000000000008152508b6000610987565b90506000611a81856040518060400160405280600381526020017f32363500000000000000000000000000000000000000000000000000000000008152508c6003610987565b90508760000151886020015189604001518a606001518686868a600001518b602001518c604001518d60600151604051602001611ac89b9a99989796959493929190613c3e565b6040516020818303038152906040529850505050505050505092915050565b60007f01ffc9a7000000000000000000000000000000000000000000000000000000007bffffffffffffffffffffffffffffffffffffffffffffffffffffffff1916827bffffffffffffffffffffffffffffffffffffffffffffffffffffffff1916149050919050565b60008073ffffffffffffffffffffffffffffffffffffffff166002600084815260200190815260200160002060009054906101000a900473ffffffffffffffffffffffffffffffffffffffff1673ffffffffffffffffffffffffffffffffffffffff1614159050919050565b816004600083815260200190815260200160002060006101000a81548173ffffffffffffffffffffffffffffffffffffffff021916908373ffffffffffffffffffffffffffffffffffffffff160217905550808273ffffffffffffffffffffffffffffffffffffffff16611c3083611172565b73ffffffffffffffffffffffffffffffffffffffff167f8c5be1e5ebec7d5bd14f71427d1e84f3dd0314c0f7b2291e5b200ac8c7c3b92560405160405180910390a45050565b6000611c8182611b51565b611cc0576040517f08c379a0000000000000000000000000000000000000000000000000000000008152600401611cb790614250565b60405180910390fd5b6000611ccb83611172565b90508073ffffffffffffffffffffffffffffffffffffffff168473ffffffffffffffffffffffffffffffffffffffff161480611d3a57508373ffffffffffffffffffffffffffffffffffffffff16611d22846107f8565b73ffffffffffffffffffffffffffffffffffffffff16145b80611d4b5750611d4a81856118d0565b5b91505092915050565b8273ffffffffffffffffffffffffffffffffffffffff16611d7482611172565b73ffffffffffffffffffffffffffffffffffffffff1614611dca576040517f08c379a0000000000000000000000000000000000000000000000000000000008152600401611dc190614310565b60405180910390fd5b600073ffffffffffffffffffffffffffffffffffffffff168273ffffffffffffffffffffffffffffffffffffffff161415611e3a576040517f08c379a0000000000000000000000000000000000000000000000000000000008152600401611e3190614210565b60405180910390fd5b611e45600082611bbd565b6001600360008573ffffffffffffffffffffffffffffffffffffffff1673ffffffffffffffffffffffffffffffffffffffff1681526020019081526020016000206000828254611e95919061464f565b925050819055506001600360008473ffffffffffffffffffffffffffffffffffffffff1673ffffffffffffffffffffffffffffffffffffffff1681526020019081526020016000206000828254611eec9190614506565b92505081905550816002600083815260200190815260200160002060006101000a81548173ffffffffffffffffffffffffffffffffffffffff021916908373ffffffffffffffffffffffffffffffffffffffff160217905550808273ffffffffffffffffffffffffffffffffffffffff168473ffffffffffffffffffffffffffffffffffffffff167fddf252ad1be2c89b69c2b068fc378daa952ba7f163c4a11628f55a4df523b3ef60405160405180910390a4505050565b60606000821415611fed576040518060400160405280600181526020017f3000000000000000000000000000000000000000000000000000000000000000815250905061214d565b600082905060005b6000821461201f578080612008906147dd565b915050600a826120189190614593565b9150611ff5565b60008167ffffffffffffffff811115612061577f4e487b7100000000000000000000000000000000000000000000000000000000600052604160045260246000fd5b6040519080825280601f01601f1916602001820160405280156120935781602001600182028036833780820191505090505b5090505b60008514612146576001826120ac919061464f565b9150600a856120bb919061485e565b60306120c79190614506565b60f81b818381518110612103577f4e487b7100000000000000000000000000000000000000000000000000000000600052603260045260246000fd5b60200101907effffffffffffffffffffffffffffffffffffffffffffffffffffffffffffff1916908160001a905350600a8561213f9190614593565b9450612097565b8093505050505b919050565b6000816001836121629190614506565b10156121a3576040517f08c379a000000000000000000000000000000000000000000000000000000000815260040161219a90614350565b60405180910390fd5b6001826121b09190614506565b835110156121f3576040517f08c379a00000000000000000000000000000000000000000000000000000000081526004016121ea90614390565b60405180910390fd5b60008260018501015190508091505092915050565b60606000600283600261221b91906145f5565b6122259190614506565b67ffffffffffffffff811115612264577f4e487b7100000000000000000000000000000000000000000000000000000000600052604160045260246000fd5b6040519080825280601f01601f1916602001820160405280156122965781602001600182028036833780820191505090505b5090507f3000000000000000000000000000000000000000000000000000000000000000816000815181106122f4577f4e487b7100000000000000000000000000000000000000000000000000000000600052603260045260246000fd5b60200101907effffffffffffffffffffffffffffffffffffffffffffffffffffffffffffff1916908160001a9053507f78000000000000000000000000000000000000000000000000000000000000008160018151811061237e577f4e487b7100000000000000000000000000000000000000000000000000000000600052603260045260246000fd5b60200101907effffffffffffffffffffffffffffffffffffffffffffffffffffffffffffff1916908160001a905350600060018460026123be91906145f5565b6123c89190614506565b90505b60018111156124b4577f3031323334353637383961626364656600000000000000000000000000000000600f861660108110612430577f4e487b7100000000000000000000000000000000000000000000000000000000600052603260045260246000fd5b1a60f81b82828151811061246d577f4e487b7100000000000000000000000000000000000000000000000000000000600052603260045260246000fd5b60200101907effffffffffffffffffffffffffffffffffffffffffffffffffffffffffffff1916908160001a905350600485901c9450806124ad90614750565b90506123cb565b50600084146124f8576040517f08c379a00000000000000000000000000000000000000000000000000000000081526004016124ef906141b0565b60405180910390fd5b8091505092915050565b6060600082511415612525576040518060200160405280600081525090506126a8565b6000604051806060016040528060408152602001615c2d60409139905060006003600285516125549190614506565b61255e9190614593565b600461256a91906145f5565b9050600060208261257b9190614506565b67ffffffffffffffff8111156125ba577f4e487b7100000000000000000000000000000000000000000000000000000000600052604160045260246000fd5b6040519080825280601f01601f1916602001820160405280156125ec5781602001600182028036833780820191505090505b509050818152600183018586518101602084015b81831015612667576003830192508251603f8160121c1685015160f81b8252600182019150603f81600c1c1685015160f81b8252600182019150603f8160061c1685015160f81b8252600182019150603f811685015160f81b825260018201915050612600565b60038951066001811461268157600281146126915761269c565b613d3d60f01b600283035261269c565b603d60f81b60018303525b50505050508093505050505b919050565b6126b8848484611d54565b6126c484848484612964565b612703576040517f08c379a00000000000000000000000000000000000000000000000000000000081526004016126fa906141d0565b60405180910390fd5b50505050565b600073ffffffffffffffffffffffffffffffffffffffff168273ffffffffffffffffffffffffffffffffffffffff161415612779576040517f08c379a0000000000000000000000000000000000000000000000000000000008152600401612770906142d0565b60405180910390fd5b61278281611b51565b156127c2576040517f08c379a00000000000000000000000000000000000000000000000000000000081526004016127b9906141f0565b60405180910390fd5b6001600360008473ffffffffffffffffffffffffffffffffffffffff1673ffffffffffffffffffffffffffffffffffffffff16815260200190815260200160002060008282546128129190614506565b92505081905550816002600083815260200190815260200160002060006101000a81548173ffffffffffffffffffffffffffffffffffffffff021916908373ffffffffffffffffffffffffffffffffffffffff160217905550808273ffffffffffffffffffffffffffffffffffffffff16600073ffffffffffffffffffffffffffffffffffffffff167fddf252ad1be2c89b69c2b068fc378daa952ba7f163c4a11628f55a4df523b3ef60405160405180910390a45050565b612961816040516024016128df91906143d2565b6040516020818303038152906040527ff5b1bba9000000000000000000000000000000000000000000000000000000007bffffffffffffffffffffffffffffffffffffffffffffffffffffffff19166020820180517bffffffffffffffffffffffffffffffffffffffffffffffffffffffff8381831617835250505050612af4565b50565b60006129858473ffffffffffffffffffffffffffffffffffffffff16612b1d565b15612ae7578373ffffffffffffffffffffffffffffffffffffffff1663150b7a02338786866040518563ffffffff1660e01b81526004016129c99493929190614127565b602060405180830381600087803b1580156129e357600080fd5b505af1925050508015612a1457506040513d601f19601f82011682018060405250810190612a119190612f65565b60015b612a97573d8060008114612a44576040519150601f19603f3d011682016040523d82523d6000602084013e612a49565b606091505b50600081511415612a8f576040517f08c379a0000000000000000000000000000000000000000000000000000000008152600401612a86906141d0565b60405180910390fd5b805181602001fd5b63150b7a0260e01b7bffffffffffffffffffffffffffffffffffffffffffffffffffffffff1916817bffffffffffffffffffffffffffffffffffffffffffffffffffffffff191614915050612aec565b600190505b949350505050565b60008151905060006a636f6e736f6c652e6c6f679050602083016000808483855afa5050505050565b600080823b905060008111915050919050565b6040518060800160405280606081526020016060815260200160608152602001606081525090565b604051806040016040528060008152602001600073ffffffffffffffffffffffffffffffffffffffff1681525090565b6000612b9b612b968461443b565b614416565b905082815260208101848484011115612bb357600080fd5b612bbe84828561470e565b509392505050565b6000612bd9612bd48461446c565b614416565b905082815260208101848484011115612bf157600080fd5b612bfc84828561470e565b509392505050565b600081359050612c1381615bd0565b92915050565b600081359050612c2881615be7565b92915050565b600081359050612c3d81615bfe565b92915050565b600081519050612c5281615bfe565b92915050565b600082601f830112612c6957600080fd5b8135612c79848260208601612b88565b91505092915050565b600082601f830112612c9357600080fd5b8135612ca3848260208601612bc6565b91505092915050565b600060808284031215612cbe57600080fd5b612cc86080614416565b9050600082013567ffffffffffffffff811115612ce457600080fd5b612cf084828501612c82565b600083015250602082013567ffffffffffffffff811115612d1057600080fd5b612d1c84828501612c82565b602083015250604082013567ffffffffffffffff811115612d3c57600080fd5b612d4884828501612c82565b604083015250606082013567ffffffffffffffff811115612d6857600080fd5b612d7484828501612c82565b60608301525092915050565b600081359050612d8f81615c15565b92915050565b600060208284031215612da757600080fd5b6000612db584828501612c04565b91505092915050565b60008060408385031215612dd157600080fd5b6000612ddf85828601612c04565b9250506020612df085828601612c04565b9150509250929050565b600080600060608486031215612e0f57600080fd5b6000612e1d86828701612c04565b9350506020612e2e86828701612c04565b9250506040612e3f86828701612d80565b9150509250925092565b60008060008060808587031215612e5f57600080fd5b6000612e6d87828801612c04565b9450506020612e7e87828801612c04565b9350506040612e8f87828801612d80565b925050606085013567ffffffffffffffff811115612eac57600080fd5b612eb887828801612c58565b91505092959194509250565b60008060408385031215612ed757600080fd5b6000612ee585828601612c04565b9250506020612ef685828601612c19565b9150509250929050565b60008060408385031215612f1357600080fd5b6000612f2185828601612c04565b9250506020612f3285828601612d80565b9150509250929050565b600060208284031215612f4e57600080fd5b6000612f5c84828501612c2e565b91505092915050565b600060208284031215612f7757600080fd5b6000612f8584828501612c43565b91505092915050565b60008060408385031215612fa157600080fd5b600083013567ffffffffffffffff811115612fbb57600080fd5b612fc785828601612c58565b9250506020612fd885828601612d80565b9150509250929050565b600080600060608486031215612ff757600080fd5b600084013567ffffffffffffffff81111561301157600080fd5b61301d86828701612c82565b935050602061302e86828701612d80565b925050604061303f86828701612d80565b9150509250925092565b6000806000806080858703121561305f57600080fd5b600085013567ffffffffffffffff81111561307957600080fd5b61308587828801612cac565b945050602085013567ffffffffffffffff8111156130a257600080fd5b6130ae87828801612c82565b93505060406130bf87828801612d80565b92505060606130d087828801612d80565b91505092959194509250565b6000602082840312156130ee57600080fd5b60006130fc84828501612d80565b91505092915050565b6000806040838503121561311857600080fd5b600061312685828601612d80565b925050602061313785828601612d80565b9150509250929050565b61314a81614683565b82525050565b61316161315c82614683565b614826565b82525050565b61317081614695565b82525050565b613187613182826146a1565b614838565b82525050565b6000613198826144b2565b6131a281856144c8565b93506131b281856020860161471d565b6131bb8161494b565b840191505092915050565b60006131d1826144bd565b6131db81856144d9565b93506131eb81856020860161471d565b6131f48161494b565b840191505092915050565b600061320a826144bd565b61321481856144ea565b935061322481856020860161471d565b61322d8161494b565b840191505092915050565b6000613243826144bd565b61324d81856144fb565b935061325d81856020860161471d565b80840191505092915050565b600081546132768161477a565b61328081866144fb565b9450600182166000811461329b57600181146132ac576132df565b60ff198316865281860193506132df565b6132b58561449d565b60005b838110156132d7578154818901526001820191506020810190506132b8565b838801955050505b50505092915050565b60006132f56013836144fb565b915061330082614969565b601382019050919050565b60006133186020836144ea565b915061332382614992565b602082019050919050565b600061333b6081836144fb565b9150613346826149bb565b608182019050919050565b600061335e6032836144fb565b915061336982614a7c565b603282019050919050565b60006133816032836144fb565b915061338c82614acb565b603282019050919050565b60006133a46067836144fb565b91506133af82614b1a565b606782019050919050565b60006133c76009836144fb565b91506133d282614bb5565b600982019050919050565b60006133ea6034836144fb565b91506133f582614bde565b603482019050919050565b600061340d6032836144ea565b915061341882614c2d565b604082019050919050565b60006134306013836144fb565b915061343b82614c7c565b601382019050919050565b6000613453601c836144ea565b915061345e82614ca5565b602082019050919050565b60006134766024836144ea565b915061348182614cce565b604082019050919050565b60006134996019836144ea565b91506134a482614d1d565b602082019050919050565b60006134bc602b836144fb565b91506134c782614d46565b602b82019050919050565b60006134df6028836144fb565b91506134ea82614d95565b602882019050919050565b6000613502602c836144ea565b915061350d82614de4565b604082019050919050565b6000613525603c836144fb565b915061353082614e33565b603c82019050919050565b60006135486047836144fb565b915061355382614e82565b604782019050919050565b600061356b6021836144fb565b915061357682614ef7565b602182019050919050565b600061358e6035836144fb565b915061359982614f46565b603582019050919050565b60006135b1605e836144fb565b91506135bc82614f95565b605e82019050919050565b60006135d46001836144fb565b91506135df8261500a565b600182019050919050565b60006135f7605a836144fb565b915061360282615033565b605a82019050919050565b600061361a6038836144ea565b9150613625826150a8565b604082019050919050565b600061363d6004836144fb565b9150613648826150f7565b600482019050919050565b6000613660602a836144ea565b915061366b82615120565b604082019050919050565b60006136836047836144fb565b915061368e8261516f565b604782019050919050565b60006136a66029836144ea565b91506136b1826151e4565b604082019050919050565b60006136c96037836144fb565b91506136d482615233565b603782019050919050565b60006136ec6062836144fb565b91506136f782615282565b606282019050919050565b600061370f6002836144fb565b915061371a8261531d565b600282019050919050565b60006137326007836144fb565b915061373d82615346565b600782019050919050565b60006137556026836144fb565b91506137608261536f565b602682019050919050565b60006137786020836144ea565b9150613783826153be565b602082019050919050565b600061379b600d836144fb565b91506137a6826153e7565b600d82019050919050565b60006137be602c836144ea565b91506137c982615410565b604082019050919050565b60006137e1603a836144fb565b91506137ec8261545f565b603a82019050919050565b60006138046033836144fb565b915061380f826154ae565b603382019050919050565b60006138276012836144fb565b9150613832826154fd565b601282019050919050565b600061384a6030836144fb565b915061385582615526565b603082019050919050565b600061386d6014836144fb565b915061387882615575565b601482019050919050565b60006138906006836144fb565b915061389b8261559e565b600682019050919050565b60006138b36029836144ea565b91506138be826155c7565b604082019050919050565b60006138d6604d836144fb565b91506138e182615616565b604d82019050919050565b60006138f96013836144fb565b91506139048261568b565b601382019050919050565b600061391c6029836144fb565b9150613927826156b4565b602982019050919050565b600061393f6027836144fb565b915061394a82615703565b602782019050919050565b60006139626025836144fb565b915061396d82615752565b602582019050919050565b60006139856003836144fb565b9150613990826157a1565b600382019050919050565b60006139a86021836144ea565b91506139b3826157ca565b604082019050919050565b60006139cb601d836144fb565b91506139d682615819565b601d82019050919050565b60006139ee6010836144ea565b91506139f982615842565b602082019050919050565b6000613a116062836144fb565b9150613a1c8261586b565b606282019050919050565b6000613a346031836144ea565b9150613a3f82615906565b604082019050919050565b6000613a57600a836144fb565b9150613a6282615955565b600a82019050919050565b6000613a7a6013836144ea565b9150613a858261597e565b602082019050919050565b6000613a9d6063836144fb565b9150613aa8826159a7565b606382019050919050565b6000613ac06006836144fb565b9150613acb82615a42565b600682019050919050565b6000613ae36006836144fb565b9150613aee82615a6b565b600682019050919050565b6000613b066024836144fb565b9150613b1182615a94565b602482019050919050565b6000613b29605b836144fb565b9150613b3482615ae3565b605b82019050919050565b6000613b4c601a836144fb565b9150613b5782615b58565b601a82019050919050565b6000613b6f6032836144fb565b9150613b7a82615b81565b603282019050919050565b60006080830160008301518482036000860152613ba282826131c6565b91505060208301518482036020860152613bbc82826131c6565b91505060408301518482036040860152613bd682826131c6565b91505060608301518482036060860152613bf082826131c6565b9150508091505092915050565b613c06816146f7565b82525050565b613c1d613c18826146f7565b614854565b82525050565b6000613c2f8284613176565b60208201915081905092915050565b6000613c49826132e8565b9150613c55828e613238565b9150613c608261353b565b9150613c6c828d613238565b9150613c77826135c7565b9150613c83828c613238565b9150613c8e826135c7565b9150613c9a828b613238565b9150613ca582613978565b9150613cb1828a613238565b9150613cbd8289613238565b9150613cc98288613238565b9150613cd482613423565b9150613ce08287613238565b9150613ceb82613676565b9150613cf78286613238565b9150613d02826135c7565b9150613d0e8285613238565b9150613d19826135c7565b9150613d258284613238565b9150613d3082613978565b91508190509c9b505050505050505050505050565b6000613d5082613397565b9150613d5c8288613238565b9150613d688287613238565b9150613d7382613581565b9150613d7e826133dd565b9150613d89826134d2565b9150613d958286613238565b9150613da082613725565b9150613dab82613374565b9150613db6826138c9565b9150613dc182613932565b9150613dcd8285613269565b9150613dd882613725565b9150613de3826136bc565b9150613dee826134af565b9150613dfa8284613238565b9150613e0582613725565b9150613e10826135ea565b9150613e1b82613a90565b9150613e26826135a4565b9150613e3182613b1c565b9150613e3c826136df565b9150613e478261332e565b9150613e5282613ad6565b91508190509695505050505050565b6000613e6c826133ba565b9150613e788286613238565b9150613e838261381a565b9150613e8f8285613238565b9150613e9a8261378e565b9150613ea582613b3f565b9150613eb18284613238565b9150613ebc82613702565b9150819050949350505050565b6000613ed4826137f7565b9150613ee0828b613269565b9150613eeb82613630565b9150613ef6826137d4565b9150613f02828a613269565b9150613f0d82613630565b9150613f1882613351565b9150613f248289613269565b9150613f2f82613978565b9150613f3a82613b62565b9150613f468288613269565b9150613f5182613630565b9150613f5c82613518565b9150613f678261383d565b9150613f738287613238565b9150613f7e82613725565b9150613f8982613a04565b9150613f9482613af9565b9150613fa08286613269565b9150613fab82613860565b9150613fb682613955565b9150613fc28285613269565b9150613fcd82613860565b9150613fd88261390f565b9150613fe48284613269565b9150613fef8261355e565b91508190509998505050505050505050565b600061400c826139be565b91506140188284613238565b915081905092915050565b600061402e82613a4a565b915061403a828a613238565b915061404582613883565b91506140518289613238565b915061405c82613ab3565b91506140688288613238565b9150614073826138ec565b915061407f8287613269565b915061408a82613748565b91506140968286613238565b91506140a1826135c7565b91506140ad8285613238565b91506140b8826135c7565b91506140c48284613238565b91506140cf82613978565b915081905098975050505050505050565b60006140ec8285613c0c565b6020820191506140fc8284613150565b6014820191508190509392505050565b60006020820190506141216000830184613141565b92915050565b600060808201905061413c6000830187613141565b6141496020830186613141565b6141566040830185613bfd565b8181036060830152614168818461318d565b905095945050505050565b60006020820190506141886000830184613167565b92915050565b600060208201905081810360008301526141a881846131ff565b905092915050565b600060208201905081810360008301526141c98161330b565b9050919050565b600060208201905081810360008301526141e981613400565b9050919050565b6000602082019050818103600083015261420981613446565b9050919050565b6000602082019050818103600083015261422981613469565b9050919050565b600060208201905081810360008301526142498161348c565b9050919050565b60006020820190508181036000830152614269816134f5565b9050919050565b600060208201905081810360008301526142898161360d565b9050919050565b600060208201905081810360008301526142a981613653565b9050919050565b600060208201905081810360008301526142c981613699565b9050919050565b600060208201905081810360008301526142e98161376b565b9050919050565b60006020820190508181036000830152614309816137b1565b9050919050565b60006020820190508181036000830152614329816138a6565b9050919050565b600060208201905081810360008301526143498161399b565b9050919050565b60006020820190508181036000830152614369816139e1565b9050919050565b6000602082019050818103600083015261438981613a27565b9050919050565b600060208201905081810360008301526143a981613a6d565b9050919050565b600060208201905081810360008301526143ca8184613b85565b905092915050565b60006020820190506143e76000830184613bfd565b92915050565b60006040820190506144026000830185613bfd565b61440f6020830184613141565b9392505050565b6000614420614431565b905061442c82826147ac565b919050565b6000604051905090565b600067ffffffffffffffff8211156144565761445561491c565b5b61445f8261494b565b9050602081019050919050565b600067ffffffffffffffff8211156144875761448661491c565b5b6144908261494b565b9050602081019050919050565b60008190508160005260206000209050919050565b600081519050919050565b600081519050919050565b600082825260208201905092915050565b600082825260208201905092915050565b600082825260208201905092915050565b600081905092915050565b6000614511826146f7565b915061451c836146f7565b9250827fffffffffffffffffffffffffffffffffffffffffffffffffffffffffffffffff038211156145515761455061488f565b5b828201905092915050565b600061456782614701565b915061457283614701565b92508260ff038211156145885761458761488f565b5b828201905092915050565b600061459e826146f7565b91506145a9836146f7565b9250826145b9576145b86148be565b5b828204905092915050565b60006145cf82614701565b91506145da83614701565b9250826145ea576145e96148be565b5b828204905092915050565b6000614600826146f7565b915061460b836146f7565b9250817fffffffffffffffffffffffffffffffffffffffffffffffffffffffffffffffff04831182151516156146445761464361488f565b5b828202905092915050565b600061465a826146f7565b9150614665836146f7565b9250828210156146785761467761488f565b5b828203905092915050565b600061468e826146d7565b9050919050565b60008115159050919050565b6000819050919050565b60007fffffffff0000000000000000000000000000000000000000000000000000000082169050919050565b600073ffffffffffffffffffffffffffffffffffffffff82169050919050565b6000819050919050565b600060ff82169050919050565b82818337600083830152505050565b60005b8381101561473b578082015181840152602081019050614720565b8381111561474a576000848401525b50505050565b600061475b826146f7565b9150600082141561476f5761476e61488f565b5b600182039050919050565b6000600282049050600182168061479257607f821691505b602082108114156147a6576147a56148ed565b5b50919050565b6147b58261494b565b810181811067ffffffffffffffff821117156147d4576147d361491c565b5b80604052505050565b60006147e8826146f7565b91507fffffffffffffffffffffffffffffffffffffffffffffffffffffffffffffffff82141561481b5761481a61488f565b5b600182019050919050565b600061483182614842565b9050919050565b6000819050919050565b600061484d8261495c565b9050919050565b6000819050919050565b6000614869826146f7565b9150614874836146f7565b925082614884576148836148be565b5b828206905092915050565b7f4e487b7100000000000000000000000000000000000000000000000000000000600052601160045260246000fd5b7f4e487b7100000000000000000000000000000000000000000000000000000000600052601260045260246000fd5b7f4e487b7100000000000000000000000000000000000000000000000000000000600052602260045260246000fd5b7f4e487b7100000000000000000000000000000000000000000000000000000000600052604160045260246000fd5b6000601f19601f8301169050919050565b60008160601b9050919050565b7f3c6c696e652078313d22323335222079313d2200000000000000000000000000600082015250565b7f537472696e67733a20686578206c656e67746820696e73756666696369656e74600082015250565b7f3c7374796c653e2e737667426f6479207b666f6e742d66616d696c793a20224360008201527f6f7572696572204e657722207d202e74696e79207b666f6e742d73697a653a3660208201527f70783b207d202e736d616c6c207b666f6e742d73697a653a20313270783b7d2e60408201527f6d656469756d207b666f6e742d73697a653a20313870783b7d3c2f7374796c6560608201527f3e00000000000000000000000000000000000000000000000000000000000000608082015250565b7f3c7265637420793d223630222077696474683d2233303022206865696768743d60008201527f2231313522207374796c653d2266696c6c3a0000000000000000000000000000602082015250565b7f3c7465787420783d2231352220793d223132302220636c6173733d226d65646960008201527f756d223e524541534f4e3a3c2f746578743e0000000000000000000000000000602082015250565b7f3c73766720636c6173733d22737667426f6479222077696474683d223330302260008201527f206865696768743d22333030222076696577426f783d2230203020333030203360208201527f30302220786d6c6e733d22687474703a2f2f7777772e77332e6f72672f32303060408201527f302f737667223e00000000000000000000000000000000000000000000000000606082015250565b7f7b226e616d65223a220000000000000000000000000000000000000000000000600082015250565b7f3c7465787420783d2231352220793d2238302220636c6173733d226d6564697560008201527f6d223e45444954494f4e3e20313c2f746578743e000000000000000000000000602082015250565b7f4552433732313a207472616e7366657220746f206e6f6e20455243373231526560008201527f63656976657220696d706c656d656e7465720000000000000000000000000000602082015250565b7f3c6c696e652078313d22323735222079313d2200000000000000000000000000600082015250565b7f4552433732313a20746f6b656e20616c7265616479206d696e74656400000000600082015250565b7f4552433732313a207472616e7366657220746f20746865207a65726f2061646460008201527f7265737300000000000000000000000000000000000000000000000000000000602082015250565b7f4552433732313a20617070726f766520746f2063616c6c657200000000000000600082015250565b7f3c7465787420783d2231352220793d2232303522207374796c653d22666f6e7460008201527f2d73697a653a387078223e000000000000000000000000000000000000000000602082015250565b7f3c7465787420783d2231352220793d223130302220636c6173733d226d65646960008201527f756d223e49443e20000000000000000000000000000000000000000000000000602082015250565b7f4552433732313a206f70657261746f7220717565727920666f72206e6f6e657860008201527f697374656e7420746f6b656e0000000000000000000000000000000000000000602082015250565b7f3c7465787420783d2231352220793d2232352220636c6173733d226d6564697560008201527f6d223e414e43484f522043455254494649434154453c2f746578743e00000000602082015250565b7f222078323d22323335222079323d2233303022207374726f6b653d227768697460008201527f6522207374726f6b652d77696474683d22313022207374726f6b652d6461736860208201527f61727261793d2200000000000000000000000000000000000000000000000000604082015250565b7f22207374726f6b652d77696474683d2235222066696c6c3d226e6f6e6522202f60008201527f3e00000000000000000000000000000000000000000000000000000000000000602082015250565b7f3c7465787420783d223231352220793d2238302220636c6173733d22736d616c60008201527f6c223e414e43484f5220434954593c2f746578743e0000000000000000000000602082015250565b7f3c7465787420783d2231352220793d223235302220636c6173733d2274696e7960008201527f223e6f662045617274682e2049662053706f6e736f7265642c20556e6465722060208201527f53656374696f6e20362e463a20546865204265617265723c2f746578743e0000604082015250565b7f2000000000000000000000000000000000000000000000000000000000000000600082015250565b7f3c7465787420783d2231352220793d223233302220636c6173733d2274696e7960008201527f223e556e6465722053656374696f6e20312e43206f66207468652055706c6f6160208201527f646564204d696e647320416e642048756d616e3c2f746578743e000000000000604082015250565b7f4552433732313a20617070726f76652063616c6c6572206973206e6f74206f7760008201527f6e6572206e6f7220617070726f76656420666f7220616c6c0000000000000000602082015250565b7f22202f3e00000000000000000000000000000000000000000000000000000000600082015250565b7f4552433732313a2062616c616e636520717565727920666f7220746865207a6560008201527f726f206164647265737300000000000000000000000000000000000000000000602082015250565b7f222078323d22323735222079323d2233303022207374726f6b653d22626c616360008201527f6b22207374726f6b652d77696474683d22313022207374726f6b652d6461736860208201527f61727261793d2200000000000000000000000000000000000000000000000000604082015250565b7f4552433732313a206f776e657220717565727920666f72206e6f6e657869737460008201527f656e7420746f6b656e0000000000000000000000000000000000000000000000602082015250565b7f3c7465787420783d2231352220793d223139302220636c6173733d22736d616c60008201527f6c223e53504f4e534f5245442042593a3c2f746578743e000000000000000000602082015250565b7f3c7465787420783d2231352220793d223237302220636c6173733d2274696e7960008201527f223e556e6465722053656374696f6e20392e413a2049662044657374726f796560208201527f642c204265617265722057696c6c2042652044656c69737465642e3c2f74657860408201527f743e000000000000000000000000000000000000000000000000000000000000606082015250565b7f227d000000000000000000000000000000000000000000000000000000000000600082015250565b7f3c2f746578743e00000000000000000000000000000000000000000000000000600082015250565b7f22207374726f6b652d77696474683d22313022207374726f6b652d646173686160008201527f727261793d220000000000000000000000000000000000000000000000000000602082015250565b7f4552433732313a206d696e7420746f20746865207a65726f2061646472657373600082015250565b7f222c2022696d616765223a202200000000000000000000000000000000000000600082015250565b7f4552433732313a20617070726f76656420717565727920666f72206e6f6e657860008201527f697374656e7420746f6b656e0000000000000000000000000000000000000000602082015250565b7f3c7265637420793d22323035222077696474683d22333030222068656967687460008201527f3d223735222072783d22313022207374796c653d2266696c6c3a000000000000602082015250565b7f3c726563742077696474683d2233303022206865696768743d2233303022207260008201527f783d22313022207374796c653d2266696c6c3a00000000000000000000000000602082015250565b7f222c20226465736372697074696f6e223a220000000000000000000000000000600082015250565b7f3c7465787420783d2231372220793d2235302220636c6173733d22736d616c6c60008201527f22206f7061636974793d22302e35223e00000000000000000000000000000000602082015250565b7f22207374726f6b652d77696474683d2235222f3e000000000000000000000000600082015250565b7f222079313d220000000000000000000000000000000000000000000000000000600082015250565b7f4552433732313a207472616e73666572206f6620746f6b656e2074686174206960008201527f73206e6f74206f776e0000000000000000000000000000000000000000000000602082015250565b7f3c7265637420783d2231352220793d22313235222077696474683d223230352260008201527f206865696768743d22343022207374796c653d2266696c6c3a77686974653b6f60208201527f7061636974793a302e35222f3e00000000000000000000000000000000000000604082015250565b7f222079323d2233303022207374726f6b653d2200000000000000000000000000600082015250565b7f3c7061746820643d224d203233302035352071203235202d333020353020302260008201527f207374726f6b653d220000000000000000000000000000000000000000000000602082015250565b7f3c7465787420783d2231352220793d223134302220636c6173733d226d65646960008201527f756d223e544f2000000000000000000000000000000000000000000000000000602082015250565b7f3c7061746820643d224d20323830203535206c202d3330202d3430222073747260008201527f6f6b653d22000000000000000000000000000000000000000000000000000000602082015250565b7f222f3e0000000000000000000000000000000000000000000000000000000000600082015250565b7f4552433732313a20617070726f76616c20746f2063757272656e74206f776e6560008201527f7200000000000000000000000000000000000000000000000000000000000000602082015250565b7f646174613a6170706c69636174696f6e2f6a736f6e3b6261736536342c000000600082015250565b7f746f55696e74385f6f766572666c6f7700000000000000000000000000000000600082015250565b7f3c636972636c652063783d22323535222063793d2233302220723d223230222060008201527f7374726f6b653d227768697465222066696c6c3d227472616e73706172656e7460208201527f22207374726f6b652d77696474683d223522206f7061636974793d22302e372260408201527f2f3e000000000000000000000000000000000000000000000000000000000000606082015250565b7f4552433732313a207472616e736665722063616c6c6572206973206e6f74206f60008201527f776e6572206e6f7220617070726f766564000000000000000000000000000000602082015250565b7f3c6c696e652078313d2200000000000000000000000000000000000000000000600082015250565b7f746f55696e74385f6f75744f66426f756e647300000000000000000000000000600082015250565b7f3c7465787420783d2231352220793d223234302220636c6173733d2274696e7960008201527f223e436f6578697374656e636520506163743a2054686520426561726572204960208201527f732052652d456e7469746c656420546f205468652046726565646f6d3c2f746560408201527f78743e0000000000000000000000000000000000000000000000000000000000606082015250565b7f222078323d220000000000000000000000000000000000000000000000000000600082015250565b7f3c2f7376673e0000000000000000000000000000000000000000000000000000600082015250565b7f3c7061746820643d224d20323330203535206c203330202d343022207374726f60008201527f6b653d2200000000000000000000000000000000000000000000000000000000602082015250565b7f3c7465787420783d2231352220793d223236302220636c6173733d2274696e7960008201527f223e48617320496d6d6564696174652041636365737320546f2054686520496e60208201527f6e65722042616e6477696474682057656c6c732e3c2f746578743e0000000000604082015250565b7f646174613a696d6167652f7376672b786d6c3b6261736536342c000000000000600082015250565b7f3c7265637420793d22313735222077696474683d22333030222068656967687460008201527f3d22343022207374796c653d2266696c6c3a0000000000000000000000000000602082015250565b615bd981614683565b8114615be457600080fd5b50565b615bf081614695565b8114615bfb57600080fd5b50565b615c07816146ab565b8114615c1257600080fd5b50565b615c1e816146f7565b8114615c2957600080fd5b5056fe4142434445464748494a4b4c4d4e4f505152535455565758595a6162636465666768696a6b6c6d6e6f707172737475767778797a303132333435363738392b2fa26469706673582212209f93d04d92cdc2c9000dd7e95c8a68f40c66eb59977ae5d56d6704c3e970720d64736f6c63430008040033",
  "linkReferences": {},
  "deployedLinkReferences": {}
}