{
  "_format": "hh-sol-artifact-1",
  "contractName": "uint8Tester",
  "sourceName": "contracts/uint8Tester.sol",
  "abi": [
    {
      "inputs": [
        {
          "internalType": "bytes",
          "name": "_bytes",
          "type": "bytes"
        },
        {
          "internalType": "uint256",
          "name": "nr_",
          "type": "uint256"
        }
      ],
      "name": "divide",
      "outputs": [
        {
          "internalType": "uint256",
          "name": "",
          "type": "uint256"
        }
      ],
      "stateMutability": "pure",
      "type": "function"
    },
    {
      "inputs": [
        {
          "internalType": "bytes",
          "name": "_bytes",
          "type": "bytes"
        },
        {
          "internalType": "uint256",
          "name": "_start",
          "type": "uint256"
        }
      ],
      "name": "toUint8",
      "outputs": [
        {
          "internalType": "uint8",
          "name": "",
          "type": "uint8"
        }
      ],
      "stateMutability": "pure",
      "type": "function"
    }
  ],
  "bytecode": "0x608060405234801561001057600080fd5b506105a1806100206000396000f3fe608060405234801561001057600080fd5b50600436106100365760003560e01c8063481377091461003b578063f1ee935b1461006b575b600080fd5b610055600480360381019061005091906101f1565b61009b565b6040516100629190610304565b60405180910390f35b610085600480360381019061008091906101f1565b610151565b60405161009291906102e9565b60405180910390f35b6000816001836100ab9190610386565b10156100ec576040517f08c379a00000000000000000000000000000000000000000000000000000000081526004016100e3906102a9565b60405180910390fd5b6001826100f99190610386565b8351101561013c576040517f08c379a0000000000000000000000000000000000000000000000000000000008152600401610133906102c9565b60405180910390fd5b60008260018501015190508091505092915050565b60008161015f84600061009b565b60ff1661016c91906103dc565b905092915050565b600061018761018284610344565b61031f565b90508281526020810184848401111561019f57600080fd5b6101aa848285610424565b509392505050565b600082601f8301126101c357600080fd5b81356101d3848260208601610174565b91505092915050565b6000813590506101eb81610554565b92915050565b6000806040838503121561020457600080fd5b600083013567ffffffffffffffff81111561021e57600080fd5b61022a858286016101b2565b925050602061023b858286016101dc565b9150509250929050565b6000610252601083610375565b915061025d82610502565b602082019050919050565b6000610275601383610375565b91506102808261052b565b602082019050919050565b6102948161040d565b82525050565b6102a381610417565b82525050565b600060208201905081810360008301526102c281610245565b9050919050565b600060208201905081810360008301526102e281610268565b9050919050565b60006020820190506102fe600083018461028b565b92915050565b6000602082019050610319600083018461029a565b92915050565b600061032961033a565b90506103358282610433565b919050565b6000604051905090565b600067ffffffffffffffff82111561035f5761035e6104c2565b5b610368826104f1565b9050602081019050919050565b600082825260208201905092915050565b60006103918261040d565b915061039c8361040d565b9250827fffffffffffffffffffffffffffffffffffffffffffffffffffffffffffffffff038211156103d1576103d0610464565b5b828201905092915050565b60006103e78261040d565b91506103f28361040d565b92508261040257610401610493565b5b828204905092915050565b6000819050919050565b600060ff82169050919050565b82818337600083830152505050565b61043c826104f1565b810181811067ffffffffffffffff8211171561045b5761045a6104c2565b5b80604052505050565b7f4e487b7100000000000000000000000000000000000000000000000000000000600052601160045260246000fd5b7f4e487b7100000000000000000000000000000000000000000000000000000000600052601260045260246000fd5b7f4e487b7100000000000000000000000000000000000000000000000000000000600052604160045260246000fd5b6000601f19601f8301169050919050565b7f746f55696e74385f6f766572666c6f7700000000000000000000000000000000600082015250565b7f746f55696e74385f6f75744f66426f756e647300000000000000000000000000600082015250565b61055d8161040d565b811461056857600080fd5b5056fea2646970667358221220d92e2b87241b4957b0542a319ae757fd0952bffb125d6c311b76a13675bd36f164736f6c63430008040033",
  "linkReferences": {},
  "deployedLinkReferences": {}
}